:020000040800F2
:1000000000000220CD1700080118000801180008A0
:10001000011800080118000801180008000000007D
:1000200000000000000000000000000001180008AF
:10003000011800080000000001180008011800085D
:10004000011800080118000801180008011800082C
:10005000011800080118000801180008011800081C
:10006000011800080118000801180008011800080C
:1000700001180008011800080118000801180008FC
:10008000011800080118000801180008000000000D
:10009000000000000000000000000000011800083F
:1000A00001180008011800080118000801180008CC
:1000B00001180008011800080118000801180008BC
:1000C00001180008011800080118000801180008AC
:1000D00001180008011800080118000800000000BD
:1000E00001180008011800080118000800000000AD
:1000F00000000000000000000000000001180008DF
:10010000000000000118000801180008011800088C
:1001100000000000000000000000000000000000DF
:10012000011800080118000801180008011800084B
:10013000011800080000000000000000000000009E
:10014000000000000000000000000000011800088E
:10015000011800080118000801180008011800081B
:10016000011800080118000800000000000000004D
:10017000000000000000000000000000000000007F
:10018000000000000118000800000000000000004E
:100190000118000801180008044B05481B1A062B1B
:1001A00002D9044B03B11847704700BF5F0A002013
:1001B0005C0A00200000000005490648091A891061
:1001C00001EBD171491002D0034B03B118477047BE
:1001D0005C0A00205C0A00200000000010B5064CFC
:1001E000237843B9FFF7D8FF044B13B10448AFF3AA
:1001F00000800123237010BD600A00200000000071
:1002000090EF000808B5084B1BB108480849AFF348
:1002100000800848036813B9BDE80840CCE7064BE6
:10022000002BF9D09847F7E70000000090EF000896
:10023000640A0020580A002000000000134B002B25
:1002400008BF114B9D46A3F5803A00218B460F460F
:100250001148124A121A04F08BFF0D4B002B00D0EC
:1002600098470C4B002B00D0984700200021040039
:100270000D000B4800F05DFF04F0F8FA20002900A3
:1002800001F074F800F052FF0000080000000220A6
:10029000000000005D130008600A002040100020EC
:1002A000C13E000810B50446406810B10368DB6821
:1002B0009847204610BDF8B504460370D4200F4679
:1002C000164600F061FF39460546324602F0F8FF57
:1002D0006560A5602046F8BD1FB504AAFE2302F89C
:1002E000043D0023017800938068012303F040F867
:1002F0000F2003F049FA05B05DF804FB30B5002388
:1003000005462C1AE4B28C4211D215F8014B634019
:10031000082413F0800F04F1FF344FEA430318BFA1
:1003200083F0310314F0FF04DBB2F2D1E9E79B1A4A
:100330005842584130BD7FB504AA0025044602F852
:10034000081D017800950123806803F011F82178D9
:10035000009503AA0223A06803F02BF821780095EA
:100360000DF10B02A068012303F023F803A802217A
:100370009DF80B209DF80C609DF80D50FFF7BEFF17
:1003800018B905EB062080B203E02046FFF7A4FF72
:10039000012004B070BD000008B5E321FFF7CBFFDA
:1003A00020F0030080B207EE900AF8EE677A17EEAD
:1003B000900A0DF08BF906A3D3E900230DF0DAF9CA
:1003C00005A3D3E900230DF021F80DF0B5FC08BD1D
:1003D000D7A3703D0AF7653FCDCCCCCCCC6C474061
:1003E00008B5E521FFF7A7FF20F0030080B207EE74
:1003F000900AF8EE677A17EE900A0DF067F900227E
:10040000044B0DF0B7F90022034B0CF0FFFF0DF089
:1004100093FC08BD00405F3F0000184007B50E4840
:10042000FFF7BAFF04460C48FFF7DAFF06462046FE
:100430000DF04CF9044630460D460DF047F92246C2
:10044000CDE900012B460549054803F08BFA4FF032
:100450007E5003F08BF9E2E7540B00208CE3000898
:10046000380B0020C36810B504460BB19B68984751
:10047000204610BD70B506460D4B46F8983B044625
:100480005EB100F1B805B54207D0103DEB68002B16
:10049000F9D09B6828469847F5E704F13800FFF744
:1004A000E1FF04F12800FFF7DDFF204670BD00BF2B
:1004B00040E9000810B50446FFF7DCFF204600F0D5
:1004C00073FE204610BD000010B5094B036003F118
:1004D00020027C330446C0F8BC20C0F8C030BC30D9
:1004E00003F02EFA2046FFF7C5FF204610BD00BFDF
:1004F00030E80008A0F1BC00FFF7E6BFA0F1C000A3
:10050000FFF7E2BF10B50446FFF7DEFF204600F01C
:100510004BFE204610BDA0F1BC00F3E7A0F1C000E7
:10052000F0E7000037B50F4D0F4C80232846192106
:100530001822FFF7C0FE224628460C490C4D00F059
:10054000F3FD4FF4165300932846022103220023A3
:1005500002F072FE07492846224603B0BDE830404B
:1005600000F0E2BD540B002098010020A502000815
:100570007C0A0020C90400087FB50023072855D84D
:10058000DFE800F00413202D3A54544700932A4B1F
:100590002A481A6B42F001021A631B6B03F0010335
:1005A0000093009B07B05DF804FB0193224B2448A5
:1005B0001A6B42F002021A631B6B03F002030193F1
:1005C000019BEFE702931C4B1E481A6B42F004029A
:1005D0001A631B6B03F004030293029BE2E703938D
:1005E000154B19481A6B42F008021A631B6B03F093
:1005F00008030393039BD5E704930F4B13481A6B2F
:1006000042F010021A631B6B03F010030493049B67
:10061000C8E70593084B0E481A6B42F080021A6334
:100620001B6B03F080030593059BBBE7094803F0B0
:100630007BF80020B6E700BF00380240000002400F
:100640000004024000080240000C0240001002407A
:10065000001C0240D0E40008431C10B5044604D13D
:1006600074220649064802F0FDFF2046002100F0F2
:10067000A1FE04F00F040120A04010BDF1E4000829
:1006800049E5000870B504464B1C0E46218216D081
:10069000C1F30310FFF770FF05463046FFF7DCFF9C
:1006A000238A074A656103F00F03206052F8233064
:1006B000A36105F1100318356360A560E56070BDA6
:1006C00078E60008B0F9100000F00CBF10B583699F
:1006D000446971B9216893FAA3F2B2FA82F2032055
:1006E000520000FA02F221EA020293FAA3F3226016
:1006F00010BD226893FAA3F1B1FA81F193FAA3F342
:100700000320490000FA01F1B3FA83F322EA01025F
:100710005B00012101FA03F31343236010BD0000C5
:1007200070B5134C23681A69950707D5DA689007E6
:1007300004D56FF002021A6102F054FD23681A69B1
:10074000510713D5DA68520710D56FF00402094E2D
:100750001A615D6A3368EB1AB3F57A7F06D301F04C
:1007600069F8236805F57A729A63356070BD00BF39
:1007700000100020600B002030B589B001A903A84B
:1007800002F078F902F046F900230293254B01901C
:100790001A6C254C42F008021A641A6C02F0080226
:1007A0000292029A1A6A42F008021A621A6A22F047
:1007B00008021A62069AA3F50B3323604FF0FF3349
:1007C000E3601A4B002A2AD1B0FBF3F00138002570
:1007D000606015482561A560656102F0B7F9144BAA
:1007E000144A9B681048C3F80821134B4FF4802229
:1007F0005A60294602F0E6F904210B4802F0E2F9BA
:1008000023680E4A596A1160126802F57A729A6377
:10081000DA68284642F00402DA6009B030BD4000D0
:10082000D2E700BF003802400010002040420F0015
:1008300000ED00E02107000800E100E0600B00206F
:1008400010B5054B9C68204601F022FA2046BDE811
:10085000104001F07BBD00BF640B002010B5054BBC
:100860005C68204601F014FA2046BDE8104001F013
:100870006DBD00BF640B002010B5054B1C68204601
:1008800001F006FA2046BDE8104001F05FBD00BF50
:10089000640B002070B590F96420254C90F9653008
:1008A000A56802F1100645F8261003F11006A568A8
:1008B00045F8261090F8681000290CBF022101218C
:1008C000002A4FEA01110EDB1A488518CCB2002B22
:1008D00085F800431EDA03F00F041748C9B2002A56
:1008E00001551ADA70BD02F00F0004380444CDB28D
:1008F000002B2576EFDB03F1604202F5614282F8BE
:10090000005303F01F02590901239340094A42F89A
:10091000213070BD184480F8004302F01F015009D7
:1009200001228A400349002B41F82020E9DA70BDFA
:1009300000ED00E000E100E014ED00E010B590F9FA
:10094000654090F9640000F083FF2046BDE8104048
:1009500000F07EBF90F85830012B00F104010AD05E
:1009600007D3022B054818BF0020054A42F8231080
:1009700070470448F9E70448F7E700BF410800085A
:10098000640B0020790800085D080008194A036814
:100990001268C16DB2FBF1F1142243604A439969B8
:1009A000890701D5013AFAD1134A934209D1134B71
:1009B0001A6A42F400121A621A6A22F400121A62C7
:1009C00070470F4A934208D10C4B1A6A42F48002D6
:1009D0001A621A6A22F48002F1E70A4A9342EFD1BE
:1009E000064B1A6A42F400021A621A6A22F40002E2
:1009F000E5E700BFA001002000540040003802409D
:100A000000580040005C0040F8B5124BC26D1B68F6
:100A1000B3FBF2F214235343426804460E46071D0B
:100A20009169890701D5013BFAD100252946A660C5
:100A3000E560384601F04AFD4FF480436361A561EB
:100A4000256265622561E561384600F029FFE665AB
:100A5000F8BD00BFA0010020F0B50E46044685B0E9
:100A600056493046154602F0ADFB55490746284623
:100A700002F0A8FBA4F860600146A4F86250384672
:100A800002F082FB2060013005D140F20D124D4989
:100A90004D4802F0E7FD22684C4B9A4223D10023D7
:100AA000019384F858304A4B44491A6C42F40012BE
:100AB0001A641B6C03F4001301933046019B02F08F
:100AC00045FB3F49284602F041FB0321304600F038
:100AD00009FD0321284600F005FD1F2384F864303A
:100AE000202384F8653022683A4B9A4224D10123AE
:100AF00084F8583000230293354B30491A6C42F485
:100B000080021A641B6C03F4800302933046029B3C
:100B100002F01CFB2A49284602F018FB032130464C
:100B200000F0E0FC0321284600F0DCFC212384F8DF
:100B30006430222384F865302268274B9A4224D1FE
:100B4000022384F8583000230393214B1B491A6C6D
:100B500042F400021A641B6C03F400030393304652
:100B6000039B02F0F3FA1649284602F0EFFA03213C
:100B7000304600F0B7FC0321284600F0B3FC4823C0
:100B800084F86430492384F86530E36D0BB9134B66
:100B9000E3652046FFF7FAFEE16D2046FFF734FFDC
:100BA000002384F8693084F8683084F86A3084F867
:100BB0006730042384F8663005B0F0BDE0E3000838
:100BC000A4E300085CE50008B3E500080054004019
:100BD0000038024000580040005C0040A086010040
:100BE0002DE9F3411E4690F86630042B0F4604466B
:100BF0009046089900F1040501D0082B3FD1002947
:100C00003BD0042384F86630002384F86730204604
:100C1000FFF7A0FE01462046FFF73CFE94F8663041
:100C200000934246B3B2B9B2284600F011FFF0B9C2
:100C3000194B1D68E36DB5FBF3F31E2506FB055547
:100C40005D4394F8673013F01E0F01D1013D1ED1B2
:100C50002046FFF773FE1DB194F86730082B08D0CB
:100C6000B4F96220B4F960102046FFF7F5FE6FF08A
:100C70000106304602B0BDE8F0810123C2E7013B26
:100C8000012BC1D809B10823BCE70223BAE7012030
:100C900002F060FDD5E700BFA00100202DE9F3417F
:100CA0001E4690F86630042B0F460446904608997D
:100CB00000F1040501D0082B3FD100293BD00423CB
:100CC00084F86630002384F867302046FFF742FE40
:100CD00001462046FFF7DEFD94F866300093424659
:100CE000B3B2B9B2284600F049FEF0B9194B1D68FD
:100CF000E36DB5FBF3F31E2506FB05555D4394F844
:100D0000673013F01E0F01D1013D1ED12046FFF7C1
:100D100015FE1DB194F86730082B08D0B4F9622095
:100D2000B4F960102046FFF797FE6FF001063046D9
:100D300002B0BDE8F0810123C2E7013B012BC1D81D
:100D400009B10823BCE70223BAE7012002F002FD43
:100D5000D5E700BFA0010020436F07B5BBB1D0F8B5
:100D60008430A3B190F86C207AB1082280F8622018
:100D700090F86220B0F8681000929BB2D0F8802002
:100D800000F066FE03B05DF804FB0222EEE70823E4
:100D900080F86330F6E7082380F86330704738B591
:100DA000051D04460261284600F07AFD2046FFF743
:100DB000D1FD01462046FFF76DFD2846BDE83840CD
:100DC00000F0B4BE70B590F864500446061F05B13B
:100DD000C568B4F95E20B4F95C103046FFF73CFEFC
:100DE00045B1012384F8643000232A461946304671
:100DF000FFF7D5FF022384F8633070BD19B90123D2
:100E000080F865307047012908BF80F86610704788
:100E1000002380F865307047002380F86630704703
:100E200000F084BE10B5044650F80429536823F43A
:100E3000E0635360FFF782FD022384F8633010BD46
:100E400000B589B002F026FC052101A802F07AF96C
:100E5000039B019A1A60962002F096FC019B049A6B
:100E60001B041360962002F08FFCF1E770B50D466D
:100E7000A0B0044602F00EFC2B46224680216846B4
:100E800008F0A0FB051E03DC02F030FC20B070BDB2
:100E9000094B1B6823B903220221084800F0B8FB64
:100EA000064E00241DF804103046013400F07CFC8E
:100EB000A542F7D1E8E700BFB40C0020B00F002036
:100EC0000FB407B504A951F8040B0191FFF7CEFF49
:100ED00003B05DF804EB04B0704708B502F082F887
:100EE00000F090FC02F070F8BDE8084002F07AB81B
:100EF00008B5084B1B685BB902210748032200F0C4
:100F000087FB4FF416510448BDE8084000F02ABCA6
:100F100008BD00BFB40C0020B00F0020022810B59F
:100F200001DC002010BDC31E0B4A52F82300002133
:100F300042F8231030B902F0BDFD092303604FF0E1
:100F4000FF3010BD03685B699847041EE9DA02F0C0
:100F5000B1FD64420460F2E7780B00200228F8B586
:100F60000D4614460EDC134B1B680BB9FFF7C0FF90
:100F7000114E2F19BD4210D015F8011B304600F05C
:100F800013FCF7E703380D4B53F8200038B902F093
:100F900091FD092303604FF0FF342046F8BD03683C
:100FA000DB689847041EF8DA02F084FD63420360B0
:100FB000F3E700BFB40C0020B00F0020780B002036
:100FC000022810B50C460BDC104B1B680BB9FFF761
:100FD0008FFF0F4800F0D6FB20700124204610BD83
:100FE00003380C4B53F8200030B902F063FD09239D
:100FF00003604FF0FF34F1E703689B689847041ED5
:10100000ECDA02F057FD63420360E7E7B40C00201E
:10101000B00F0020780B0020022810B516DD033831
:101020000B4B53F820402CB902F044FD0923036018
:10103000204610BD23682046DB699847041EF7DA76
:1010400002F038FD644204600024F1E70124EFE778
:10105000780B0020022810B506DC02F02BFD1D23C2
:1010600003604FF0FF3010BD03380A4B53F82000E7
:1010700018B902F01FFD0923F2E703681B699847BE
:10108000041E04DA02F016FD64420460E9E720461B
:1010900010BD00BF780B0020022808B504DC4FF417
:1010A00000534B60002008BD02F004FD09230360DB
:1010B0004FF0FF3008BD08B5012000F037F8000000
:1010C0000C4A136810B51844EFF30881884205D321
:1010D000094B0C221A604FF0FF3010BD07490C6815
:1010E00024B10749096821448842F1D210601846AA
:1010F00010BD00BF9C0100203C100020800C00208F
:10110000840C0020074C08B523680546986802F057
:10111000E1FD2368D86802F0DDFD0DB1FFF790FE18
:10112000FEE700BFD00500200120704708B5FFF79B
:10113000E9FF01207047002104F016BB30B585B0EF
:101140000C4602460A49054601A804F091FB2146D7
:1011500001A802F00FFF044638B12B682846DB696E
:10116000984710B12046FFF7E6FF204605B030BD96
:101170003EE600087047704708B5FFF7FBFF08BD63
:1011800008B5FFF7F8FF08BD10B503F007FC0446EB
:1011900010B9024802F0C8FA204610BD42E6000825
:1011A00008B103F003BC7047FFF7FABF034610B560
:1011B00053F8042B044602B9036022689A4204D013
:1011C0005B220349034802F04DFA206810BD00BFBE
:1011D000CDE500082AE6000810B504460948FFF7E7
:1011E000E5FF0023084A194652F82300A04208BF31
:1011F00042F823100133402BF6D10248FFF7D6FF07
:1012000010BD00BF780C0020780B00202DE9FF47AF
:1012100089464049064604F0C7FB044628B9FFF753
:1012200067FE204604B0BDE8F0873B49304604F035
:10123000BBFB18B9FFF75CFE0124F2E737493046E3
:1012400004F0B2FB18B9FFF753FE0224E9E7344873
:10125000344DFFF7ABFF0024A84655F82470002F4B
:1012600040D00134402CF8D102F024FC1823036054
:101270002B48FFF79BFF0EE0314602A802F089FAE7
:1012800002A802F0CAFA064640B902F013FC022393
:10129000036045F824604FF0FF34C2E702A802F073
:1012A000AAFA074602A81FB102F0AEFA01902BE09D
:1012B00002F098FA06460028E7D0036802A8D3F89F
:1012C00008A002F084FA29F48033024601A93046CE
:1012D000D0470646C0B102F0EDFB7642066045F805
:1012E0002470D8E74FF0FF330D4845F82430FFF75E
:1012F0005DFF337801973A2BBED102AA0A493046E6
:1013000004F0DCFA029B0193019B48F8243003347B
:1013100087E700BF67E600086EE600085FE60008A2
:10132000780C0020780B00203EE6000870477047DC
:10133000074B08499A68084810B5043A52F8044F18
:1013400041F8044F8142F9D14FF000529A6010BD2C
:1013500000ED00E0FCFFFF1F9401002008B5FFF73F
:10136000E7FFFFF7BAFDFFF7E2FF08BD08B5FFF79B
:10137000DDFFBDE80840FFF751B830B5C36891FA0A
:10138000A1F4B4FA84F491FAA1F10325B1FA81F140
:10139000640005FA04F4490023EA040302FA01F1A7
:1013A0001943C16030BD012A02D0022A18BF0022B1
:1013B000FFF7E3BF2DE9F0410E46411C044604D17E
:1013C0003E224449444802F04DF904F00F08434BD3
:1013D000C4F3031053F82850FFF7CEF806F00707C0
:1013E0000446836895FAA5F1B1FA81F195FAA5F260
:1013F0000320490000FA01F1B2FA82F223EA010364
:101400005200022101FA02F21343A36087425AD824
:10141000DFE807F05E1D021DB8F1070FC6F30320D9
:101420003BD9626A2B0A93FAA3F1B1FA81F193FADC
:10143000A3F34FF00F0EB3FA83F389000EFA01F114
:101440009B0022EA010200FA03F3134363623B4666
:10145000226895FAA5F0B0FA80F095FAA5F14FF060
:10146000030EB1FA81F140000EFA00F0490022EAC1
:1014700000028B40013F1343012F236005D86368AE
:1014800032074CBF2B43AB436360C6F301122946BE
:101490002046BDE8F041FFF786BF226A95FAA5F322
:1014A000B3FA83F395FAA5F14FF00F0EB1FA81F17B
:1014B0009B000EFA03F3890022EA030200FA01F30B
:1014C00013432362C3E767220249054802F0CAF8C2
:1014D0000023BDE7B8E6000849E5000878E6000803
:1014E0000EE70008431C70B506460D4604D188225D
:1014F0001B491C4802F0B6F806F00F021A4BC6F35F
:10150000031053F82240FFF737F804FB04F2016898
:1015100002EB42030B40B3FBF2F3013B012B05D876
:10152000EB1E022B436809D823434360032D08D1E7
:1015300001222146BDE87040FFF735BF23EA0403CE
:101540004360012DF4D0052D01D0022D01D10222DE
:10155000EFE721460022BDE87040FFF70EBF00BF55
:10156000B8E6000849E5000878E600084268164930
:10157000920110B504685450531882685A60C268CA
:101580009A600269DA6042691A61026A9A6100220D
:10159000DA84DA619A84DA859A85B0F91A20013200
:1015A0000AD108225A61184601F029FC58B10748AF
:1015B000BDE8104002F0B8B8B0F9182001320CBFF5
:1015C00004220C22EEE710BD300D002010E70008C9
:1015D0004368094A9B0182B0D3581A68120706D59E
:1015E000002201921A6801925A680192019A1868C1
:1015F000C0F3401002B07047300D00204368034A2A
:101600009B01D3581868C0F3C0107047300D0020FC
:10161000F0B50E4685B0044649493046154601F0FE
:10162000D1FD48490746284601F0CCFD0146384621
:1016300001F0AAFD2060013004D13E224249434816
:1016400002F010F82368424A93421ED002F58062ED
:1016500093425ED0A2F5504293422BD13D4B1A6A81
:1016600042F400321A621A6A22F400321A6200222C
:1016700002921A6C42F400321A641B6C03F40033B9
:101680000293029B0123636014E0324B5A6A42F0DA
:1016900010025A625A6A002122F010025A62019125
:1016A0005A6C42F010025A645B6C616003F01003E4
:1016B0000193019B2249304601F048FD214928460B
:1016C00001F044FD721C03D001213046FFF70AFFF0
:1016D0006B1C03D001212846FFF704FF4FF416537B
:1016E000A3600023E3602361636123622683658333
:1016F0002046FFF73BFF2268174B9A4207D1174B52
:10170000174801221A6021464C2203F033FC05B031
:10171000F0BD104B5A6A42F020025A625A6A22F017
:1017200020025A62002203925A6C42F020025A644C
:101730005B6C03F020030393039B0523A3E700BF27
:101740007CE4000828E4000828E7000894E7000883
:10175000001001400038024000440040B40C00205A
:10176000B00F00208160FFF701BF0000034B19603C
:101770004168034B43F82120704700BF880C0020CC
:101780008C0C002038B5446805462846FFF720FF3A
:101790000028FAD0A401034B1B595868C0F3080075
:1017A00038BD00BF300D002070B5456806460C46B8
:1017B0003046FFF723FF0028FAD0AD01024B5B59FA
:1017C000C4F308045C6070BD300D0020DFF820D049
:1017D000002103E0074B5B58435004310648074B98
:1017E00042189A42F6D301F04DFBFEF727FD7047F1
:1017F000000002200CF00008980100205C0A002084
:10180000FEE7000008B50A4B1A6842F400721A603D
:101810001A6842F480621A601A6842F480721A6090
:101820000F20FEF7A9FF00F039F8002008BD00BF27
:10183000003C0240024A136801331360704700BF46
:10184000FC0F0020014B1868704700BFFC0F002000
:1018500000280DDB4309012200F01F0002FA00F00E
:101860002033044A42F82300BFF34F8FBFF36F8F3A
:10187000704700BF00E100E090F83530022B03D044
:1018800080234365012070470268052380F83530C6
:10189000136823F0010313600020704770477047FE
:1018A00070B50446002862D090F83D3003F0FF0286
:1018B0001BB980F83C20FFF7F2FF22682D4E2E4D19
:1018C000242384F83D30136823F00103136001F0F2
:1018D000A1F863682268B0FBF5F5B34284BF4FF40A
:1018E00096716943556091BF691C4FF47A75B1FBDD
:1018F000F5F10131B342116221D85B00B0FBF3F086
:10190000C0F30B03032B98BF0420216AE369D06165
:101910000B431360E16823690B439360A16963691A
:101920000B43D360136843F00103136000202023AE
:10193000206484F83D30206384F83E0070BDA168C7
:1019400049B903EB4303B0FBF3F0C0F30B0363B1FE
:1019500040F40040D9E719214B43B0FBF3F0C0F34A
:101960000B0313B140F44040CFE70120CDE7012045
:1019700070BD00BFA086010040420F0073B5002477
:101980000094019490F83D40069D202C02D0022046
:1019900002B070BD042D32D0012D30D090F83C4003
:1019A000012CF4D0012480F83C4004682668F60736
:1019B0005EBF266846F001062660266826F40066AB
:1019C0002660212680F83D60102680F83E600026C3
:1019D00006644385C562438D41640385036B0093B0
:1019E000009B4262122B01D0009B2BBB042D01D027
:1019F000012D1ED1236843F4807323601CE0134C37
:101A000046F2A8162468B4FBF6F619247443019430
:101A1000019C661E01963CB92023046380F83C407B
:101A200080F83D300320B3E70468A469A407EFD42D
:101A3000B4E7009B122BDDD06268002342F4E06221
:101A400080F83C3062601846A2E700BFA001002089
:101A500073B50024019490F83D40069D202C02D0DF
:101A6000022002B070BD042D37D0012D35D090F882
:101A70003C40012CF4D0012480F83C4004682668E6
:101A8000F6075EBF266846F001062660266826F443
:101A900000662660222680F83D60102680F83E60B1
:101AA000002606644385C562438D41640385036B4C
:101AB0004262112B01D0036B63BB042D04D0012DB6
:101AC00002D015F5803F22D1236843F48063236060
:101AD000236843F4807323601CE0134C46F2A8167D
:101AE0002468B4FBF6F6192474430194019C661E25
:101AF00001963CB92023046380F83C4080F83D30D7
:101B00000320AEE70468A469A407EFD4AFE7036B32
:101B1000112BD9D06268002342F4E06280F83C3097
:101B2000626018469DE700BFA001002090F83D309C
:101B3000202B14D1282380F83D3003681A68D2077F
:101B40005EBF1A6842F001021A601A6842F48062AD
:101B50001A605A6842F440725A60002070470220AE
:101B6000704770477047000090F83D30293B012BCB
:101B700010B50368044639D800220263282280F891
:101B80003D201A6822F400621A605A6812F400625A
:101B900054D05A68606B22F400625A6090F8353075
:101BA000012B394B31D00365FFF766FE50B1226837
:101BB000606B136823F001031360202384F83D3029
:101BC000036D984794F83D30282B0ED1236C5B07AA
:101BD0000BD52E4BE362202200232363204684F89A
:101BE0003D2084F83E30FFF71BF910BD90F83D20F2
:101BF000602A05D05A6812055CBF202280F83D207B
:101C00000022226384F83E20BBE7A06B0365FFF748
:101C100033FE0028D6D022685369580604D5636A7B
:101C20001269591C61621A702268A06B136823F054
:101C300001031360202384F83D30C1E794F83D1080
:101C4000602914D1202184F83D1022645A6951067C
:101C500004D5626A1B69511C6162137022681368A3
:101C600023F0010313602046FFF7DCF8AAE75A6966
:101C7000520604D5626A1B69511C616213702046CA
:101C8000FFF7A0F89EE700BF812400080000FFFFD7
:101C90000368F0B59D6959695A6890F83E40E4B20E
:101CA000102C8DB002D0402C40F04A8211F0011F60
:101CB00066D0970564D590F83E40402C43D1046D22
:101CC000002C3BD1446C04F0FE041C61974E984CF0
:101CD0002E400C40002E00F09A81964D0D40002DB4
:101CE00000F06181550540F15E81002C40F05B8180
:101CF00090F83D20058D90F83E10C46AD2B2C9B26A
:101D0000002D40F00581212A40F00481042C00F0D0
:101D10006781082C00F0648114F5803F00F0608139
:101D20005A6822F4E0625A601123036380F83E503F
:101D3000202380F83D30FFF70FF810E1446C44F0A9
:101D40000104E4B2C1E70469B4F5804F05D190F80D
:101D50003D40212C446CF2D1B5E7046D34B9446C9C
:101D6000E41104F0060444F0F004AEE7046D012C25
:101D7000ACD1446CE41104F0060444F0F104A4E78F
:101D80006D4C0C401CB1960501D5446CD9E76B4CE9
:101D90000C40002C9AD0940598D590F83E40C66A25
:101DA000D0F830E090F83D70222FE4B240F0A880E7
:101DB000076D47B9402C06D101975C6901949C6975
:101DC0000194019C82E7046D8CB90769B7F5404F17
:101DD0000DD102945C6902949C690294029C1C6877
:101DE00044F480741C60046D013404656EE7448D16
:101DF000A4B254B903945C6903949C690394039C52
:101E00001C6844F400741C6019E0448DA4B2012CD9
:101E100042D116F5803F1BD11C6824F480641C60FD
:101E20005C6814F400640CD01C6824F480641C60AA
:101E3000002404945C6904949C690494049C002428
:101E4000D3E705945C6905949C690594059CD7E7E4
:101E5000042E15D0082E13D0BEF1120F10D0C46A74
:101E6000022C1C6814BF24F4806444F480641C6059
:101E7000002406945C6906949C690694069CDEE73F
:101E80001C6824F480641C60002407945C69079437
:101E90009C690794079CB3E7448DA4B2022C1CD123
:101EA000C46A022C1C681DBF24F480641C601C687A
:101EB00044F4806418BF44F400641C605C68270527
:101EC00042BF5C6844F480545C60002408945C6900
:101ED00008949C690894089CB1E71C6844F48064E9
:101EE0001C605C68260542BF5C6844F480545C60FA
:101EF000002409945C6909949C690994099C9EE7F3
:101F000000240A945C690A949C690A940A9CDDE6A0
:101F1000212A03D0402922D1222A20D1428D92B2F7
:101F200072B95A6822F480625A6018E00400100006
:101F3000040001008000010008000100020001000F
:101F400090F83E20402A28D1026D82B9C26C012A45
:101F5000826C06D1D2B21A61036D023303650DB0F3
:101F6000F0BDC2F307221A61036D0133F6E7026D7B
:101F7000012A02D1826CD2B2F5E7026D022AEED1BB
:101F800090F83D20222A04D11A6842F480721A6027
:101F9000E5E790F83D20212AE1D1426A511C4162D7
:101FA00012781A6192E0002CD9D09405D7D5C16A75
:101FB00090F83D20212AD2D1428D92B2002AECD154
:101FC00004290DD008290BD011F5803F08D059689D
:101FD00021F4E06159601123036380F83E20A7E6F5
:101FE0005A6822F4E0625A601A6842F400721A6079
:101FF00000232022036380F83D2090F83E2080F8E3
:102000003E30402A7FF497AEFFF7ABFDA7E78D4D3A
:102010000D40002D3FD051053DD5002C3BD190F80F
:102020003D20222A9BD1428D92B2032A05D9426AD1
:102030001B69511C4162137048E0023A012A1A6878
:1020400022F480621A6004D81A6842F400621A60AE
:1020500067E7C26A022A02BF1A6842F400621A6085
:102060005A6822F4E0625A60426A1B69511C41625C
:102070001370438D013B9BB24385202380F83D3094
:102080000023036390F83E2080F83E30402A54D16C
:10209000FFF768FD63E7002C3FF461AF97057FF51C
:1020A0005EAFC26A418D89B20329416A13D1042A05
:1020B00004D0082A02D012F5803F03D11A6822F416
:1020C00080621A604A1C1B6942620B70438D013B9F
:1020D0009BB2438543E7448DA4B2022CF2D1042A7B
:1020E00027D0082A25D012F5803F22D01C68013A5B
:1020F00024F48064012A1C6003D81A6842F48072B8
:102100001A601B694A1C42620B70438D013B9BB2F3
:102110004385436A5A1C4262026812691A70438DF1
:102120000268013B9BB24385536823F440735360BC
:10213000A3E71A6842F40072E2E7FEF72CFE0EE70E
:10214000414C0C4074B196050CD599699B6981F09E
:1021500004011D06C1F3800154BF8289028BFEF782
:102160004DFEFCE6394C0C40002C73D0940571D523
:1021700090F83D20596821F4E061596000210B91ED
:1021800059690B91196841F0010119600B9919689F
:1021900021F48061196059680905D2B20CD590F814
:1021A0003D10222903D090F83D102A2929D1816BB6
:1021B0000968496889B24185418D89B2E1B159699F
:1021C0004F0708D5416A1B694C1C44620B70438D54
:1021D000013B9BB2438501684B695E0608D5436AA3
:1021E00009695C1C44621970438D013B9BB24385B5
:1021F000036C43F004030364036C23B1FFF7B4FCE6
:10220000ADE6416BD4E7A2F1280102290AD8104AB1
:10221000C2622022036380F83D2080F83E30FEF742
:10222000FFFD9CE6036B222B02D0222A7FF497AE9F
:1022300000232022036380F83D2080F83E30FEF723
:10224000EBFD8CE6400001000200010010000100DF
:102250000000FFFF394E3A4C2E400C40002E36D085
:10226000384D0D403DB3550525D524BB90F83D10A4
:10227000428D92B2C9B2002A3FF471AE426A541C38
:10228000446212781A61428D013A92B24285428DBF
:1022900092B2002A7FF463AE29297FF460AE5A68B7
:1022A00022F480625A6021230363282380F83D30A2
:1022B000FEF7AEFD53E6002C3FF451AE94057FF5DA
:1022C0004EAE428D92B2002A7FF467AE47E61E4DB5
:1022D0000D4035B3510524D51CBB90F83D20418DF0
:1022E00089B2D2B200293FF43AAE416A1B694C1C54
:1022F00044620B70438D013B9BB24385438D9BB27F
:10230000002B7FF42CAE2A2A7FF429AE0268536892
:1023100023F48063536022230363282380F83D3035
:102320008DE7002C3FF41BAE92057FF518AE428D71
:1023300092B2002A7FF47BAE11E600BF04001000C9
:10234000040001008000010040000100F8B50368AE
:10235000494A5E695D681642044608D0E80506D51C
:10236000226C42F0010222646FF480725A6116F40A
:10237000813F08D0E90506D5226C42F002022264B2
:102380006FF400725A6116F4823F36D0EA0534D5F4
:1023900094F83E70618D94F83D20206B202F89B217
:1023A000D2B258D1002956D102F0F701212903D029
:1023B000282A50D121284ED194F83D20E16A0429E1
:1023C000D2B201D008292CD1282A2AD12B4AE26284
:1023D0005A6822F4E0625A606FF480625A611A68A7
:1023E00022F480621A60002320222363204684F8AE
:1023F0003D2084F83E30FEF713FD16F4843F09D0EB
:10240000EB0507D5236C43F00803236423686FF4BE
:1024100000625A61236C73B32046BDE8F840FFF7B1
:10242000A3BB212A23D11549E1622263202284F82B
:102430003D20002284F83E205A6822F4E0625A606F
:102440006FF480625A611A6822F480621A60204632
:10245000FEF7DEFCD1E7226C42F00402226494F81D
:102460003E20102A02BF1A6842F400721A606FF40C
:1024700080625A61C1E7F8BD000101000000FFFF62
:10248000806B08B50368416B1A6822F480621A6099
:10249000002242850A65816B0A6590F83D1060292B
:1024A0004FF0200180F83D1080F83E2007D10264F3
:1024B0001A6822F001021A60FEF7B4FC08BD1A681F
:1024C00022F001021A60FEF77DFC08BD90F83D2065
:1024D000D2B2202A10B516D1242380F83D300368EB
:1024E0001C6824F001041C605C6A24F010045C6227
:1024F0005C6A21435962196841F00101196080F852
:102500003D20002010BD022010BD00000368F7B57B
:102510000446D8073BD42368990700F186802368D6
:102520001E0700F1D18023685D072AD5002301939F
:102530008E4B8F4D1A6C42F080521A641B6C03F064
:1025400080530193019B2B6843F480732B60FFF74A
:1025500079F906462B68DA0540F1D880A368834DE7
:10256000012B40F0DA802B6F43F001032B67FFF75C
:1025700069F97E4D064641F288372B6F9B0740F183
:10258000ED80A269002A40F0F980002015E0774B29
:102590009A6802F00C02042A07D09A6802F00C0232
:1025A000082A0CD15B685A0209D5704B1B689B0343
:1025B000B1D56368002BAED1012003B0F0BD6368D4
:1025C0006A4DB3F5803F11D12B6843F480332B6003
:1025D000FFF738F9654D06462B689F039BD4FFF73C
:1025E00031F9801B6428F7D90320E6E7B3F5A02F63
:1025F00004D12B6843F480232B60E5E72A6822F49A
:1026000080322A602A6822F480222A60002BDFD1DF
:10261000FFF718F906462B6898037FF57CAFFFF7A4
:1026200011F9801B6428F6D9DEE7504B9A6812F046
:102630000C0F07D09A6802F00C02082A16D15B68CA
:10264000590213D4494B1A68920702D5E268012A4D
:10265000B2D11868F82292FAA2F2B2FA82F1226993
:102660008A4020F0F8010A431A6058E7E268414BBB
:10267000DAB101221A60FFF7E5F83C4D06462B68F7
:102680009B070CD52968F82393FAA3F3B3FA83F2D6
:102690002369934021F0F80213432B603FE7FFF7D3
:1026A000D1F8801B0228EAD99EE71A60FFF7CAF822
:1026B0002E4D06462B689F077FF531AFFFF7C2F816
:1026C000801B0228F6D98FE762692B4B7AB1012271
:1026D0001A60FFF7B7F8254D06466B6F98073FF570
:1026E00022AFFFF7AFF8801B0228F6D97CE71A600B
:1026F000FFF7A8F81D4D06466B6F99077FF513AFDE
:10270000FFF7A0F8801B0228F6D96DE7FFF79AF8CB
:10271000801B02287FF61EAF66E7052B04D12B6FC6
:1027200043F004032B671EE72A6F22F001022A6799
:102730002A6F22F004022A67002B7FF418AFFFF7FC
:1027400081F841F2883706462B6F98077FF519AF5D
:10275000FFF778F8801BB842F6D945E7FFF772F823
:10276000801BB8427FF609AF3EE700BF0038024049
:102770000070004000004742800E47422B4DAB687E
:1027800003F00C03082B3FF417AF294E0023022A55
:1027900033603ED1FFF756F807462B68990132D4D3
:1027A00047F6C07797FAA7F74FF44032B7FA87F7A2
:1027B00092FAA2F24FF07061B2FA82F091FAA1F1AE
:1027C000226AE3691343626A02FA07F7A26A5208AF
:1027D000013A82403B431343E26A144CB1FA81F15F
:1027E00002FA01F10B436B6001233360FFF72AF813
:1027F000054623689A013FF5C8AEFFF723F8401B52
:102800000228F6D9F0E6FFF71DF8C01B0228C4D94C
:10281000EAE6FFF717F804462B689B017FF5B5AE93
:10282000FFF710F8001B0228F6D9DDE60038024059
:1028300060004742194A936803F00C03042B10B55B
:1028400003D0082B03D0164810BD164810BD5168A0
:10285000536801F03F0113F4800F47F6C0745368CA
:1028600094FAA4F0B0FA80F003EA040323FA00F328
:1028700014BF0C480A48B0FBF1F05843074B4FF423
:1028800040325B6892FAA2F2B2FA82F203F4403369
:10289000D34001335B00B0FBF3F010BD00380240C1
:1028A0000024F40000127A00564B1A6802F00F025E
:1028B0008A422DE9F04105460E4630D32A68940736
:1028C00037D4D0073DD44F4B1A6802F00F0296421E
:1028D000C0F088802A68510700F18C80130707D563
:1028E000494A2969936823F4604343EAC10393602A
:1028F000FFF7A0FF444BF0229B6892FAA2F2B2FAD3
:1029000082F203F0F003D340404AD35CD840404BFE
:1029100018600F20FDF730FF0020BDE8F081CAB23B
:102920001A701B6803F00F039942C7D00120BDE85D
:10293000F0813549A8688B6823F0F00303438B606E
:10294000BFE76A68304B012A1ED11B6813F4003FB1
:10295000ECD02D4CA36823F003031343A360FEF7D0
:1029600071FF6B68012B074641F2883816D1A368C6
:1029700003F00C03042BA6D0FEF764FFC01B4045F8
:10298000F5D90320BDE8F081911E01291B6802D80A
:1029900013F0007FDCE713F0020FD9E7022B0AD116
:1029A000A36803F00C03082B8DD0FEF74BFFC01B70
:1029B0004045F5D9E5E7032B0FD1A36803F00C03DD
:1029C0000C2B80D0FEF73EFFC01B4045F5D9D8E761
:1029D000FEF738FFC01B4045D3D8A36813F00C0F97
:1029E000F6D170E7F2B21A701B6803F00F039E4233
:1029F0009CD16FE70449E8688B6823F4E0530343F4
:102A00008B606BE7003C024000380240B0E70008F2
:102A1000A0010020084B4FF4E0529B6892FAA2F20A
:102A2000B2FA82F203F4E053D340044AD35C044A7E
:102A30001068D840704700BF00380240C0E7000867
:102A4000A0010020084B4FF460429B6892FAA2F26A
:102A5000B2FA82F203F46043D340044AD35C044ADE
:102A60001068D840704700BF00380240C0E7000837
:102A7000A00100200F2303600B4B9A6802F00302B1
:102A800042609A6802F0F00282609A6802F4E052B2
:102A9000C2609B68DB0803F4E0530361034B1B68CF
:102AA00003F00F030B60704700380240003C024007
:102AB00070470000224A036890420ED0B0F1804F68
:102AC0000BD0A2F57C42904207D002F58062904282
:102AD00003D002F58062904219D14A6823F0700356
:102AE0001343174A904204D1CA6823F44073134336
:102AF00018E0B0F1804FF7D0124A9042F4D002F5BE
:102B000080629042F0D002F580629042ECD00E4A92
:102B10009042E9D002F580629042E5D002F58062F1
:102B20009042E1D003608B68C3620B688362044B00
:102B3000984204BF0B69036301234361704700BFE0
:102B400000000140000400400040014010B5044670
:102B5000A0B190F8393003F0FF021BB980F838209B
:102B6000FFF7A6FF022384F839302068211DFFF704
:102B7000A1FF012384F83930002010BD012010BDD1
:102B8000036A10B501248C4023EA04030362036A3C
:102B90008A401A43026210BD10B504460122006843
:102BA000FFF7EEFF2368064A934202BF5A6C42F4D5
:102BB00000425A641A6842F001021A60002010BDF7
:102BC00000000140FFF7E8BF2DE9F0470668C26842
:102BD0003369C16923F44053134333610446836866
:102BE0000069F2680343606922F41642034322F04D
:102BF0000C020B431343F3607369A26923F440731F
:102C00001343B1F5004F73617A4B7CD19E4203D0E0
:102C100003F580639E4244D1FFF714FF192505FB9D
:102C200000F360684FF064094000B3FBF0F3B3FBBE
:102C3000F9F34FEA0318FFF705FF636868435B0089
:102C4000B0FBF3F7FFF7FEFE636868435B00B0FB81
:102C5000F3F3B3FBF9F309FB1373DB003233B3FB7C
:102C6000F9F35B0003F4F877FFF7ECFE6268684362
:102C70005200B0FBF2FAFFF7E5FE636868435B00C1
:102C8000B0FBF3F3B3FBF9F309FB13A3DB0032331F
:102C9000B3FBF9F303F0070343443B44B360BDE8DF
:102CA000F087FFF7B7FE192505FB00F360684FF0CA
:102CB00064094000B3FBF0F3B3FBF9F34FEA0318E8
:102CC000FFF7A8FE636868435B00B0FBF3F7FFF70C
:102CD000A1FE636868435B00B0FBF3F3B3FBF9F359
:102CE00009FB1373DB003233B3FBF9F35B0003F42E
:102CF000F877FFF78FFE626868435200B0FBF2FA84
:102D0000FFF788FEB9E79E4202D03B4B9E4240D17E
:102D1000FFF798FE676819254FF0640905FB00F37B
:102D2000BF00B3FBF7F3B3FBF9F31F01FFF78AFE14
:102D3000636868439B00B0FBF3F8FFF783FE6368AA
:102D400068439B00B0FBF3F3B3FBF9F309FB138378
:102D50001B013233B3FBF9F303F0F008FFF772FE07
:102D6000626868439200B0FBF2FAFFF76BFE63689B
:102D700068439B00B0FBF3F3B3FBF9F309FB13A328
:102D80001B013233B3FBF9F303F00F0343EA0803EB
:102D900083E7FFF73FFE676819254FF0640905FBDD
:102DA00000F3BF00B3FBF7F3B3FBF9F31F01FFF729
:102DB00031FE636868439B00B0FBF3F8FFF72AFE1F
:102DC000636868439B00B0FBF3F3B3FBF9F309FBC3
:102DD00013831B013233B3FBF9F303F0F008FFF761
:102DE00019FE626868439200B0FBF2FAFFF712FE28
:102DF000BDE700BF0010014000140140704710B54E
:102E0000044640B390F8393003F0FF021BB980F854
:102E10003820FFF7F3FF2268242384F83930D36881
:102E200023F40053D3602046FFF7CEFE23681A69CF
:102E300022F490421A615A6922F02A025A61DA6831
:102E400042F40052DA6000202023E06384F8393035
:102E500084F83A3010BD012010BD7FB50F230193D7
:102E6000022302934FF480520023032101A803930D
:102E700004920593FFF718FDB0FA80F0400907B0FF
:102E80005DF804FB0F49D1F8883043F47003C1F8B2
:102E900088300D4B1A68002042F001021A609860D9
:102EA0001A6822F0847222F480321A60074A5A604B
:102EB0001A6822F480221A60D8604FF000638B6099
:102EC000704700BF00ED00E00038024010300024E1
:102ED00000B58FB01C4B002100911A6C42F080525B
:102EE0001A641B6C194A03F080530093009B0191F4
:102EF000136823F4404343F400431360136803F45E
:102F000040430193019B01230293C0B94FF48033E6
:102F10000393022308934FF48003099304230A9335
:102F20000C930823C8220DEB03000B920D93FFF7BF
:102F3000EDFA38B9FFF791FF0FB05DF804FB4FF4DD
:102F4000A023E5E70020F7E70038024000700040CA
:102F500010B58EB000241A4B00941A6C42F08052C7
:102F60001A641B6C174A03F080530093009B019472
:102F7000136823F4404343F400431360136803943D
:102F800003F440430193019B09940323029301231B
:102F90000593102306930223C822089308230B925B
:102FA0000DEB030004220A930C920D93FFF7AEFA87
:102FB00018B9FFF752FF0EB010BD2046FBE700BF67
:102FC000003802400070004008B50120FFF780FF84
:102FD00030B9FFF77DFF18B9FFF7BAFF00B9FEE778
:102FE00008BD0000174A1849936803F00C03042B2E
:102FF00010B50DD0082B0DD0144B0B60114B144A9B
:103000009B68C3F30313D25C0B68D3400B6010BD05
:10301000104BF2E75468506852686302C2F388129A
:1030200000F03F004CBF0B4B084BB3FBF0F3534396
:10303000044A5268C2F3014201325200B3FBF2F378
:10304000DBE700BF00380240A00100200024F400AC
:10305000B0E7000800127A00054B186830B9012269
:103060001A60044B044A1A60FDF786BB704700BF24
:10307000B80C002000100020000C004008B5044BE4
:103080001B680BB9FFF7E8FF024B586A08BD00BF89
:10309000B80C0020000C00400A4B0B4A1360DA68A1
:1030A00022F00202DA6058635A6A801A0028DEBFF2
:1030B0005A6942F002025A61DA6842F00202DA60AA
:1030C000704700BF000C004000100020034B044A72
:1030D0001360DA6822F00202DA607047000C0040E8
:1030E00000100020034A044B13606FF002021A61C3
:1030F000704700BF00100020000C004038B50446A7
:103100000D4603685AB18268136020460121FDF71D
:10311000DDFA29462046BDE83840FDF7D3BAC2683B
:103120001B04F1E770B50E4604461546FDF7AAFAF2
:10313000013606D02A4620460021BDE87040FFF740
:10314000DDBF70BD0022FFF7EDBF000010B50446E3
:1031500001300DD110BD9C4209D120468968FEF78F
:1031600029F920460021BDE81040FEF7BBB90C311B
:10317000B1F900305A1CEED10248BDE8104000F011
:10318000D3BA00BFF9E70008884208B508D0431C4D
:1031900006D0013106D0044800F0C6FA4FF0FF31E6
:1031A000084608BD0146FBE7C8E70008B1F9003052
:1031B0005A1C01D118467047834201D148687047B4
:1031C0000C31F3E7421C10B5044607D0FFF7EEFFC1
:1031D000431C044602D1024800F0A6FA204610BD66
:1031E000D9E70008014800F054B900BF0CE8000816
:1031F00003681B69184703689B69184703689B6A43
:1032000018474FF0FF3070471120704770477047E4
:10321000A0F1BC00FFF7FBBFA0F1BC00FFF7F7BFB8
:1032200000F094B9A0F1BC00FFF7FABF00F091B92B
:10323000A0F1BC00FFF7FABF38B504461D46049B59
:1032400000F0A8F9294604F1BC0000F051FB064B40
:1032500003F10802226003F128028433C4F8BC2081
:10326000C4F8C030204638BD28E8000810B480B14A
:10327000146853680CB9DA070BD513F0010F4FEA45
:1032800063031CBFC2581459184423465DF8044B0D
:1032900018475DF8044B7047064B19681A1D01B9B1
:1032A0001A601B68934204D05B220349034800F074
:1032B000D9B97047D80C0020CDE500082AE60008EF
:1032C000F7B51A4B036000230E460093019302A941
:1032D00003610446174600F1180211E9030082E871
:1032E00003001349216248F207016162E362A462AC
:1032F0002263104A6263BFF36F8FBFF34F8F04F1F5
:103300003C0584F8383019469422284601F030FFF5
:10331000094BC4F8D03028463A463146FDF79CFBAD
:10332000064B20461C6003B0F0BD00BFBCE800089F
:1033300001A090E86D320008A0860100E00C00209A
:10334000036870B5094D1B68044698472B689C427A
:1033500006D0D4F8D01004F13C00FDF755FB2C60EA
:10336000236820465B68BDE870401847E00C0020E9
:10337000F7B51D46036804461B680E461746984776
:103380002046FFF7DDFF9DF8203083F00103314632
:1033900000933A462B4604F13C00FDF77FFC23687E
:1033A00006465B6820469847A81B18BF012003B05B
:1033B000F0BDF7B51D46036804461B680E46174668
:1033C00098472046FFF7BCFF9DF8203083F00103AB
:1033D000314600933A462B4604F13C00FDF700FCD1
:1033E000236806465B6820469847A81B18BF012043
:1033F00003B0F0BD10B5044B044640F8043BFDF7A4
:1034000031F8204610BD00BFBCE8000810B50446E6
:10341000FFF7F0FF2046FDF7C7FE204610BD03680A
:10342000D0B544685B68D4E9026798470022B0428F
:1034300042EA00023B4602D2003247F10103C4E9EE
:103440000223D0BD2DE970430646FFF7E8FF7368FD
:103450005A68DAB1D3E90245D2E90001A94208BFAE
:10346000A04211D3B0EB040861EB0509B9F1000FDC
:1034700008BFB8F1E04F09D2001B9A6833681044C6
:103480001B69BDE8704318470020F6E74FF0E040A5
:10349000F3E7036870B5DB680446984763685B68C8
:1034A000A3B12046FFF7BBFF65686E68D5E902014E
:1034B000D6E90023994208BF904207D3F3686B60B6
:1034C0002B68002BEAD0B0689847E7E72046BDE8B4
:1034D0007040FFF7B7BF70477047704710B480B1B6
:1034E000146853680CB9DA070BD513F0010F4FEAD3
:1034F00063031CBFC2581459184423465DF8044B9B
:1035000018475DF8044B70470368184708B10B680B
:103510000360704770470000090170B5441801F15D
:103520009805D4F8A43005442BB940F20E22054981
:10353000054800F097F8D4F8A43028461B68BDE889
:1035400070401847D8E8000831E900084C30FEF711
:1035500019B910B54C300C46FEF726F9204610BDBF
:10356000C36810B504460BB19B689847204610BD50
:10357000884238B504460D460AD0FFF7F1FF3CB14A
:10358000EB681BB15B68294620469847EB68E3600F
:10359000204638BD2DE9F04387B0002591460095BF
:1035A00002460195044688461F469DE80300274BC6
:1035B00042F8083B264B82E80300236148F20703E8
:1035C0006361244BE561A46122626362BFF36F8F84
:1035D000BFF34F8F04F14C064C226563656484F899
:1035E000485084F84950304601F0C2FD02A9C4F8A1
:1035F000A450C4F8B450C4F8B870174D174F0297D0
:1036000004F198000595FFF7B3FF02A8FFF7A8FFA4
:1036100002A904F1A80002970595FFF7A9FF02A8E7
:10362000FFF79EFF4A4641463046FDF7F1FFD4F8CA
:10363000B8103046FEF796F8304622460849FEF7A5
:1036400095F8204607B0BDE8F08300BF40E90008C8
:1036500001A090E8DD340008CCE80008D734000869
:103660001935000870B504460D46164600F012F8EC
:1036700033462A4621460348FDF722FCBDE8704048
:10368000FDF7DEBB50E90008EFF31080C04300F007
:103690000100704738B5FFF7F7FF054672B60E4CCC
:1036A000236823B980F001030C4ADBB2137023684E
:1036B000013304D149220A490A48FFF7D3FF23689E
:1036C0002BB125B14D2206490748FFF7CBFF2368F0
:1036D0000133236038BD00BFE80C0020E40C00205B
:1036E00081E90008D4E90008FAE9000810B50A4C9D
:1036F000236883B1FFF7C8FF20B15E22074908485D
:10370000FFF7B0FF2368013B236023681BB9054B1B
:103710001B7803B962B610BDE80C002081E90008EF
:10372000FAE90008E40C00200FB413B5084B1A782E
:103730004AB9012405A904981C700191FDF796FB74
:103740002046FDF7F3FC02B0BDE8104004B070471E
:10375000EC0C002038B50446FFF790FC0546FFF757
:103760008DFC401BA042FAD338BD000007EE100AC2
:10377000DFED047A67EE277AFDEEE77A17EE900A1E
:10378000FFF7E8BF002474494FF47A735843FFF7FA
:10379000E1BF10B50023036043600A782F2A044676
:1037A0000DD14A785AB1481C2060194623681A780E
:1037B0002F2A06D10133236000F05CF960602046B7
:1037C00010BD002AF8D0013301312360EEE7006814
:1037D0007047406808B520B100F0FCF8431E58421D
:1037E000584108BD10B50446FFF7F3FF10B16068FB
:1037F00000B1043810BD406808B520B100F0EAF807
:10380000B0FA80F0400908BD10B50446FFF7F3FF99
:1038100010B1606800B1043810BD4068003018BFB6
:103820000120704700207047002070470368012284
:103830001B6900211847036800221B6911461847BD
:1038400070477047F8B50368DB6C0E4604468F1866
:1038500098473546BD4207D0236815F8011B5B6CBD
:10386000204698470130F5D1236820461B6D9847C4
:10387000A81BF8BDF8B50368DB6C0E4604468F182C
:1038800098473546BD4208D0236820469B6C984730
:10389000431C02D005F8010BF4E7236820461B6D9A
:1038A0009847A81BF8BD002070477047002070475C
:1038B0000020704710B5054B03604C33044640F8B8
:1038C000043F00F0A7F8204610BD00BF18EA00082A
:1038D000A0F10400EEE700BF10B50446FFF7EAFFD1
:1038E0002046FDF761FC204610BDA0F10400F3E77F
:1038F0000F4B10B50022044640F8043B00F06CF872
:103900000C4B23605C336360002363610A492046EB
:1039100000F05EF8606118B1FDF70DFC204610BDA7
:1039200000F0C8F801680548FFF7FEFEF6E700BFA3
:1039300004EB000898EA00086CEA00086FEA000847
:1039400010B5074B03F1080264330446026043607C
:10395000406900F0F7F82046FFF7ACFF204610BDA5
:1039600090EA00080EB477B5036807AD044655F831
:10397000046BDB6C98476069019500F0ABF9019A24
:103980006069314605F09CFD236805461B6D2046A5
:103990009847284603B0BDE8704003B070470368FD
:1039A00070B51B690122002104469847051E0DDBF6
:1039B000236802221B690021204698472368064697
:1039C00029461B690022204698473546284670BD87
:1039D000FDF7B4BB007B704738B504460A4B036063
:1039E000002343600D46A16002730848FDF7DEFB2B
:1039F00045B1074B1A6862601C600448FDF7D6FBAE
:103A0000204638BD6560F8E750EB0008F40C002054
:103A1000F00C002010B50F4B036004460E48FDF774
:103A2000C5FBA3682BB10D4A13689C420CD1636897
:103A300013600948FDF7BAFB237B13B9201FFDF77C
:103A4000CBFB204610BD13465A689442FBD16268F6
:103A50005A60EEE750EB0008F40C0020F00C002058
:103A600010B50446FFF7D6FF2046FDF79DFB204624
:103A700010BD000070B506460C480D46FDF796FBDC
:103A80000B4B1C685CB1A06870B12A46314602F04D
:103A900025F948B9A06802F0F3F8854204D103483B
:103AA000FDF784FB204670BD6468EBE7F40C002052
:103AB000F00C0020014B1868704700BFD0050020B3
:103AC00000293DD070B505460C4608B1836B7BB329
:103AD000B4F90C300BB9002070BD2846214600F027
:103AE00039F8E36A064633B12846E1699847002869
:103AF000B8BF4FF0FF36A3891B061CD4216B41B120
:103B000004F14003994202D0284600F089FA0023CC
:103B10002363616C21B1284600F082FA00236364BC
:103B200000F0CAF90023A38100F0C8F9304670BD47
:103B300000F0BCF9CCE72846216900F071FADDE716
:103B400000207047024B01461868FFF7B9BF00BF5D
:103B5000D00500208B899AB22DE9F0410D4611075E
:103B600080463CD46A6843F40063002AAB8165DD7B
:103B7000AE6A002E4BD09BB203F48052002192B269
:103B8000D8F80040C8F80010002A5BD02A6D5F0703
:103B900005D569682B6B521A0BB1EB6BD21A4046F4
:103BA000E9690023B047461C56D0AB892A692A60D0
:103BB00023F400639BB200226A60DA04AB813BD439
:103BC000296BC8F8004011B305F14003994202D0B7
:103BD000404600F025FA00202863BDE8F0812E69F8
:103BE000AEB12C682E6091070CBF6B690023A41B3B
:103BF000AB600AE0324623466F6AE9694046B8473F
:103C00000028A4EB0004064404DD002CF2DC0020B4
:103C1000BDE8F081AB8943F04003AB814FF0FF304A
:103C2000BDE8F081AB892A69696023F400639BB227
:103C3000AB81DB042A60C3D52865C1E7EA6B002AA3
:103C400096DCE4E701234046E969B047431C02469D
:103C500019D0AB89AE6A9AE7D8F800100029E1D0F4
:103C60001D2907D0162905D0AB8943F04003AB814D
:103C7000BDE8F081AB892A692A6023F40063002241
:103C8000AB816A609CE7D8F80030002BE1D01D2B97
:103C900007D0162B05D0AB8943F04003AB81BDE8BC
:103CA000F081C8F80040B2E710B5044682B008B110
:103CB000836B53B1B1F90C0008B902B010BD2046B6
:103CC00002B0BDE81040FFF745BF019100F0EEF8EB
:103CD0000199EFE720B1054B01461868FFF7E4BFF3
:103CE000034B0449186800F097BD00BFD0050020C1
:103CF0005CEB0008A93C0008014900F08DBD00BF45
:103D0000C13A00082DE9F04F354B4568C3630024E4
:103D1000074600F53B7204230321C0F8E412C0F803
:103D2000E822C0F8E04283B02C606C60AC606C6646
:103D3000EC812C616C61AC61AB81214605F15C00CA
:103D4000082201F015FABE68DFF898B0DFF898A0F5
:103D5000DFF89890DFF89880C5F820B00123092299
:103D6000C5F824A0C5F82890C5F82C80ED6121463F
:103D7000F381B28106F15C0034607460B4607466F3
:103D800034617461B4610822019301F0F1F9FD68B6
:103D9000F66112200222C6F820B0C6F824A0C6F8A8
:103DA0002890C6F82C802146A881EA812C606C609E
:103DB000AC606C662C616C61AC6105F15C00082242
:103DC00001F0D6F9019BED61C5F820B0C5F824A03B
:103DD000C5F82890C5F82C80BB6303B0BDE8F08F10
:103DE000F93C0008155900083D59000875590008AC
:103DF0009559000870B568234D1E03FB05F50E4666
:103E000005F1740100F0DAFD044640B100210C30E8
:103E1000666005F168022160A06001F0A9F9204602
:103E200070BD00BF204B70B51D68AB6B064613B963
:103E30002846FFF767FF05F538756B68AC68013BEE
:103E400005D521E0013B5A1C04F168041CD0B4F9EB
:103E50000C20002AF6D1002501234FF6FF72E281E3
:103E6000A38165662560A560656025616561A561C2
:103E7000294604F15C00082201F07AF925636563A4
:103E80006564A564204670BD2B680BB11D46D4E760
:103E900030460421FFF7AEFF286008B10546CCE7A5
:103EA0000C23336070BD00BF5CEB0008836B03B173
:103EB0007047FFF727BF00BF704700BF704700BFC4
:103EC00038B5084B084DED1AAC1018BFED1805D0E9
:103ED000013C55F8043D9847002CF9D1BDE8384025
:103EE0000AF04EBA540A0020580A0020F0B583B0F8
:103EF0000F46114601AA064606F02EFC0546E8B11B
:103F00003046FFF78FFF0446C0B139463046019A6C
:103F10004FF4DB7301F07AF900281BDB114B124FD1
:103F20001249134AE362EB05E081A581E46127624F
:103F30006162A26205D4204603B0F0BD002003B048
:103F4000F0BD304621460022022300F041F9204610
:103F500003B0F0BD0025FFF7AFFFA581FFF7AEFF6F
:103F60002846E9E795590008155900083D59000809
:103F700075590008024B0A4601461868FFF7B6BF9C
:103F8000D0050020F8B5234F0C460646FDF7F4F89F
:103F9000BB685D6825F00305291B01F6EF7121F46C
:103FA0007F6121F00F01A1F58054B4F5805F07DB3C
:103FB0003046002101F0C6FBBB682B44984204D078
:103FC0003046FDF7DDF80020F8BD3046614201F0D3
:103FD000B9FB01300DD0104BBA6819682D1B45F0A4
:103FE00001053046091B55601960FDF7C9F801202D
:103FF000F8BD3046002101F0A5FBBA68831A0F2BEB
:10400000DEDD064C0449246843F00103001B5360C5
:104010000860D5E7D4050020080D0020E009002045
:1040200000294ED02DE9F0410C468046FDF7A4F85A
:1040300054F8047C624927F00102A4F10805AB188A
:104040008E6858689E4220F003005AD0FE075860E0
:104050000BD454F8087CED1B01F1080EAC687445D4
:104060003A4467D0EF68E760BC601C186468E407F6
:104070000CD4544F9C68BC4202447CD0D868E060A9
:1040800042F0010384606B60AA5003E042F0010338
:104090006B60AA50B2F5007F14D2D20801EBC203C4
:1040A00048689F68AF609210012404FA02F210433E
:1040B000EB6048609D60FD604046BDE8F041FDF763
:1040C0005FB87047530A042B47D8930903F13804AB
:1040D000600001EB80003A498368834243D059680D
:1040E00021F00301914202D99B689842F7D1DA6826
:1040F000EA60AB6040469560DD60BDE8F041FDF7E9
:104100003FB8FF07024407D454F8083CED1A1A449C
:10411000A868EB68C36098602B4B1B6842F00100F5
:104120009A4268608D60C7D3284B40461968FFF7F4
:1041300029FFC1E719184968C90709D4D9689B68DC
:10414000024442F00100D9608B606860AA50B3E776
:1041500042F001036B60AA50AEE7142B14D803F1B0
:104160005B046000B5E74A68A4100120A040024348
:104170004A601A46BCE742F001034D610D61EC60F4
:10418000AC606B60AA5097E7542B04D8130B03F173
:104190006E0460009DE7B3F5AA7F04D8D30B03F14A
:1041A0007704600095E740F25450834204D8930CA2
:1041B00003F17C0460008CE7FC207E2489E700BFCB
:1041C000D4050020DC050020DC090020040D0020BF
:1041D00000F000B82DE9F04F0C4691B091461E4614
:1041E000054610B1836B002B73D0A38903F484734D
:1041F000B3F5847F75D0D4F82880B8F1000F00F0B3
:104200003E81012E4AD0022E08D03EB116232B60EB
:104210004FF0FF37384611B0BDE8F08F4FF0000A7D
:1042200023695746002B00F01581A28940F61A0336
:1042300091B20B4043B949055ED4934B984500F0C9
:10424000F68042F40062A28128462146FFF72CFD49
:1042500007460028DCD14A4633462846E169C04774
:104260000130D5D0216B41B104F14003994202D015
:104270002846FFF7D5FE00232363A3892269226025
:1042800023F402630021A381616004F15C00082231
:1042900000F06EFF384611B0BDE8F08F2846214689
:1042A000FFF702FDA38903F4805292B2002A00F0C6
:1042B000B480276D5E075CD4180740F1AC8022689B
:1042C00023690AB1D21A1744B9444FF0010A0026F3
:1042D000A8E7FFF7EBFDA38903F48473B3F5847FAC
:1042E00089D128462146FFF7DFFC84E7A3894FF4F4
:1042F00080621343A381E264002E43D1CB46BAF11E
:10430000000F4ED1A389DA0440F1A980206D6368C3
:10431000216BC71A002900F0AB80E26BBF1A1F4463
:104320002069A36B1B1AFF1A1344BB453FDBFA1825
:1043300093453CD2C7EB0B073844DB1B84E80900EC
:1043400041B104F14003994202D02846FFF768FECC
:1043500000232363A38923F02003A38104F15C00DD
:104360000021082200F004FF0027384611B0BDE804
:10437000F08F6268236BBF1A002B4CD0E26B23696D
:10438000BF1AA1E72846B4F90E1001AA00F07EF882
:1043900000287FF459AF059B09EB030BBAF1000F1E
:1043A000B0D0216B6368002962D0E26BB7E7E76C9D
:1043B000E1697F420BEA07073A4628460023C047D7
:1043C00001303FF441AF2369216B23600023636018
:1043D00041B104F14003994202D02846FFF720FE84
:1043E00000232363A389BBEB070B23F02003A381E6
:1043F000B4D02846214601F01DF900287FF424AFEF
:10440000626893453FF620AF2368CBEB02025B4422
:1044100062602360A2E7236956E733462846E169D4
:10442000C047431C07463FF4F3AEA38942E7B4F903
:104430000E100029FFF605AF284601AA00F026F865
:1044400030B9029B03F47043B3F5004F3FF44EAF15
:10445000A289F6E62846214600F030FAE5E6012377
:1044600052462846E169C047431C7FF450AFEBE653
:1044700022682069121ABF1A1344002155E71D2330
:104480002B604FF0FF37C5E67559000838B5084C6A
:1044900000230546084611462360FCF7FDFD431C3A
:1044A00000D038BD2368002BFBD02B6038BD00BF87
:1044B0003C1000209368002B7AD02DE9F04FB1F822
:1044C0000CE01EF0080F83B00C468146164626D03D
:1044D0000B6923B30EF002081FFA88F0356870B339
:1044E0004FF0000ADFF8E0B2D046D84543465246C6
:1044F00028BF5B464846B8F1000F53D0E169676AB0
:10450000B847002873DDB3681B1A8244C0EB080863
:10451000B360002BE9D1002003B0BDE8F08F48461E
:10452000214605F0C7F8002840F04581B4F80CE0BA
:1045300035680EF002081FFA88F00028D0D11EF06E
:10454000010B5DD1D846B8F1000F25D01EF4007FD5
:10455000A7682FD0B845BA46C0F0A9801EF4906F66
:1045600040F0B68020685246594600F09DFDA06894
:104570002268C01B02EB0A03A06023604046B368B8
:104580001B1A8344C0EB0808B360002BC3D0B4F8F7
:104590000CE0B8F1000FD9D1D5F800B0D5F80480FF
:1045A0000835D0E7D5F800A0D5F8048008359CE799
:1045B0000020704720682369984203D862699045BB
:1045C00080F0B980474528BF47463A46594600F033
:1045D0006BFDA3682268DB1B3A44A3602260002BBA
:1045E0004AD148462146FFF75FFB002844D0A38903
:1045F00043F040034FF0FF30A38103B0BDE8F08FDC
:104600008046009083468246BAF1000F2CD0009B72
:10461000002B50D020682169D4F808E06269D045A9
:10462000434628BF534688421F4604D90EEB020C6E
:10463000634500F39280934220DB1346676AE16989
:1046400048465A46B847071ED1DDB8EB070825D0C3
:10465000B368DB1BBB44C7EB0A0AB360002B3FF413
:104660005AAFBAF1000FD2D10023D5F800B0D5F877
:1046700004A000930835C7E7384680E71A46594634
:10468000019300F011FDA2682168019BB8EB0708B7
:10469000A2EB03020B44A2602360D9D14846214615
:1046A000FFF702FB0028A2D1CDF80080D0E72068F8
:1046B0004746C24657E758460A21524600F010FCCA
:1046C000002873D001300123CBEB00080093A1E751
:1046D00067692169236807EB47075B1A07EBD77700
:1046E000581C7F10404487423A463CBF07463A4632
:1046F0001EF4806F009346D01146484600F05EF9E4
:10470000009B8246002859D01A462169009300F088
:1047100031FCA289009B22F4906242F08002A281C7
:104720000AEB0300FB1AC4F810A067612060A360C5
:104730004746C24617E76FF00043434528BF43464C
:10474000676A93FBF2F3484603FB02F3E1695A46BA
:10475000B84700283FF713AF49E762465946CDF8FE
:1047600004C000F0A1FC2368DDF804C063442360AA
:1047700048462146FFF798FADDF804C000287FF488
:1047800036AF674661E7484600F054FD009B82461D
:104790000028C5D148462169FFF742FCA3890C22B5
:1047A00023F080039BB2C9F8002021E701230AF11E
:1047B000010800932EE74FF0FF30ADE60C23C9F857
:1047C0000030A38914E700BF00FCFF7F2DE9F04112
:1047D00010F538771BD0884600267D68BC68013DFF
:1047E0000FD4A389012B05F1FF3506D9B4F90E309A
:1047F0000133204601D0C04706436B1C04F1680416
:10480000EFD13F68002FE8D13046BDE8F0813E4649
:104810003046BDE8F08100BF2DE9F84310F5387748
:104820001FD0884606464FF000097D68BC68013DF0
:1048300011D4A389012B05F1FF3508D9B4F90E3045
:1048400001332146304602D0C04749EA00096B1CBB
:1048500004F16804EDD13F68002FE6D14846BDE879
:10486000F883B9464846BDE8F88300BF70B50F4EDF
:104870000F4D761BB61018BF002405D0013455F833
:10488000043B9847A642F9D10A4E0B4D761B09F01E
:1048900071FDB61018BF002406D0013455F8043B52
:1048A0009847A642F9D170BD70BD00BF4C0A0020E8
:1048B0004C0A0020540A00204C0A00208B899AB22E
:1048C00012F0020F3CD1F0B50C46B1F90E100029E0
:1048D00091B0054619DB01AAFFF7D8FD002812DBCD
:1048E000029B03F47043B3F5004FA3F50057B7FAEA
:1048F00087F74FEA57172AD0A38943F40063A381AF
:104900004FF480660BE0A3899AB212F0800F43F453
:104910000063A3810CBF4FF4806640260027284621
:10492000314600F04BF8A38940B31A4AEA6343F0DA
:104930008003A3812060206166619FB911B0F0BD42
:1049400001F1430301220B600B614A617047124B76
:10495000A26A9A42D0D1A3894FF480663343A381DF
:10496000E664DCE72846B4F90E1005F02FFF0028B6
:10497000E4D0A38943F00103A381DFE79A05DDD4E6
:1049800004F1430243F002030121A381226022616A
:104990006161D3E7F93C000875590008024B0146F4
:1049A000186800F00BB800BFD0050020024B01468C
:1049B0001868FFF735BB00BFD00500202DE9F04F88
:1049C00001F10B05162D83B0064627D935F00705F2
:1049D00000F1B680A94200F2B380FCF7CDFBB5F53B
:1049E000FC7F22D2C24FE80807EBC003DC689C4280
:1049F00000F0C8816368E168A56823F003032344DD
:104A000030465A68E96042F001028D605A60FCF756
:104A1000B7FB0834204603B0BDE8F08F102900F240
:104A20008F80FCF7A9FB1025DCE7680A00F08F8077
:104A3000042800F25481A80938304100AC4F07EB3C
:104A40008101CC68A14206D10CE0002A80F282806C
:104A5000E468A14206D0636823F003035A1B0F2ABF
:104A6000F3DD01380130A2493C6901F1080E7445BB
:104A700000F07D81636823F003035A1B0F2A00F3C3
:104A80006381002AC1F814E0C1F810E073DAB3F5CD
:104A9000007F80F03981DB0801EBC3084FEAA30CEB
:104AA0004A68D8F80890C4F80890012303FA0CF378
:104AB0001343C4F80C804B60C8F80840C9F80C4098
:104AC0008210012494409C4262D8234206D120F0F7
:104AD00003006400234200F10400FAD007EBC00891
:104AE000C4468146DCF80C309C4507D141E10029E1
:104AF00080F25181DB689C4500F03B815A6822F0CE
:104B00000302511B0F29F2DD1C46D3F80CC054F8E8
:104B1000088F5A1945F0010941F00105C3F80490C6
:104B20003046C8F80CC0CCF808807A613A61C2F807
:104B30000CE0C2F808E055605150FCF721FB69E732
:104B400000240C232046336003B0BDE8F08F7E21A3
:104B50003F2073E72344E1685A68A56842F00102E8
:104B6000E96030468D605A60FCF70AFB0834204645
:104B700003B0BDE8F08F234430465A6842F001028A
:104B80005A60FCF7FDFA0834204603B0BDE8F08F08
:104B9000BC68636823F00308454504D8C5EB0803E7
:104BA0000F2B00F38C80534BDFF858A11A68DAF80A
:104BB000003001332A4404EB080B00F0508102F569
:104BC00080520F3222F47F6222F00F0211463046EB
:104BD000019200F0B7FDB0F1FF3F8146019A00F06D
:104BE0004781834500F2EE80434B1968CB45114461
:104BF000196000F04281DAF80000DFF808E10130C6
:104C00001BBFCBEB090B5944CEF80090196019F08B
:104C1000070100F00781C1F10800C1F5805181440E
:104C200008314A44C2F30B02C2EB010A5146304636
:104C3000019300F087FD431C019B00F02C81C9EB20
:104C40000002524442F001021968C7F8089051442A
:104C5000BC42C9F804201960DFF89CA016D0B8F156
:104C60000F0F40F2EE806268A8F10C0323F00703F7
:104C7000E01802F001024FF0050E1A430F2B62609C
:104C8000C0F804E0C0F808E000F209811B4BBC68E2
:104C90001A68914288BF1960194B1A68914262687C
:104CA00088BF196022F003029542A2EB050301D8E8
:104CB0000F2B04DC3046FCF763FA0024AAE66219E5
:104CC00043F0010345F0010565603046BA6053606A
:104CD000FCF756FA0834204603B0BDE8F08F1428DC
:104CE00068D9542800F29780280B6E304100A5E661
:104CF000D4050020040D0020080D0020000D002028
:104D0000FC0C0020E00900205A0A042A55D9142A74
:104D100000F2A7805B324FEA420C07EB8C0CDFF805
:104D2000BC81DCF8081061457FD04A6822F003029C
:104D3000934202D289688C45F7D1CA687B68E260E9
:104D4000A1609460CC60BBE6631942F0010745F0B6
:104D50000105656030464B610B61C3F80CE0C3F898
:104D600008E05F609A500834FCF70AFA52E64B6894
:104D7000A6E609F1010919F0030F0CF1080C7FF404
:104D8000B1AE2CE004F108036469A34208BF02300D
:104D90003FF469AE2EE61A441C465168DB6854F8AD
:104DA000085F41F0010151603046EB609D60FCF707
:104DB000E7F92FE65B30410040E69A0938324FEAC6
:104DC000420CAAE7BC42454B3FF40EAF9C686268B8
:104DD00022F0030268E7D8F8008098457CD110F0F3
:104DE000030FA8F1080300F1FF30F4D17B6823EA38
:104DF00004037B6064009C423FF6CAAE002C3FF483
:104E0000C7AE234248467FF469AE6400234200F1F6
:104E10000400FAD062E6B0F5AA7F18D8E80B773024
:104E200041000BE64FF48051FBE6D8F804309210B5
:104E30004FF0010C0CFA02F21343C8F804300A4692
:104E40007DE70123C9F804304C4600222CE740F2EC
:104E5000545398421CD8A80C7C304100EEE5103227
:104E6000B4E6542A23D81A0B6E324FEA420C54E7A8
:104E7000BC68626822F0030216E7CBF30B0000283F
:104E80007FF4B9AE4244BB6842F001025A60FDE6CD
:104E9000FC217E20D2E501224FF0000AD4E604F185
:104EA00008013046FFF7BCF8DAF80010EEE6B2F57C
:104EB000AA7F04D8DA0B77324FEA420C2DE740F292
:104EC00054518A4204D89A0C7C324FEA420C24E7AF
:104ED0004FF0FC0C7E2220E77B688BE7D405002096
:104EE000830770B4C9B240D0541E002A3FD0037863
:104EF0008B4218BF431C06D11DE0F4B102788A42F0
:104F000004F1FF3417D013F0030F184603F1010327
:104F1000F3D1032C14D884B103788B420BD005193C
:104F2000431C02E002788A4205D0AB42184603F1E6
:104F30000103F7D1002070BC7047204670BC704759
:104F400041EA0126024646EA064610460432036854
:104F50007340A3F1013525EA030313F0803FDAD152
:104F6000043C032C1046F0D8D5E71446D1E7104690
:104F7000E1E700BF844641EA000313F003036DD16B
:104F8000403A41D351F8043B40F8043B51F8043B0C
:104F900040F8043B51F8043B40F8043B51F8043B13
:104FA00040F8043B51F8043B40F8043B51F8043B03
:104FB00040F8043B51F8043B40F8043B51F8043BF3
:104FC00040F8043B51F8043B40F8043B51F8043BE3
:104FD00040F8043B51F8043B40F8043B51F8043BD3
:104FE00040F8043B51F8043B40F8043B51F8043BC3
:104FF00040F8043B51F8043B40F8043B51F8043BB3
:1050000040F8043B403ABDD2303211D351F8043B52
:1050100040F8043B51F8043B40F8043B51F8043B92
:1050200040F8043B51F8043B40F8043B103AEDD201
:105030000C3205D351F8043B40F8043B043AF9D252
:10504000043208D0D2071CBF11F8013B00F8013B25
:1050500001D30B8803806046704700BF082A13D332
:105060008B078DD010F003038AD0C3F10403D21A4A
:10507000DB071CBF11F8013B00F8013B80D331F87E
:10508000023B20F8023B7BE7043AD9D3013A11F8FE
:10509000013B00F8013BF9D20B7803704B78437069
:1050A0008B788370604670478842F0B50DD98B18B5
:1050B00098420AD28118002A54D09A1A13F8014D46
:1050C00001F8014D9342F9D1F0BD0F2A48D940EAC9
:1050D00001039B0747D100F1100401F110031546AD
:1050E00053F8106C44F8106C53F80C6C44F80C6CCA
:1050F00053F8086C44F8086C103D53F8046C44F8FD
:10510000046C0F2D03F1100304F11004E8D8A2F190
:10511000100323F00F0302F00F0E1033BEF1030F44
:105120001944034421D91E1F0D467446043C55F80A
:10513000047B46F8047F032CF8D8AEF1040424F075
:10514000030404342344214402F0030252B1013B1E
:105150000A4411F8014B03F8014F9142F9D1F0BD17
:105160000346F3E7F0BD0346F1E77246EEE700BF02
:1051700070B4840746D0541E002A41D0CDB20346F5
:1051800002E0621EE4B3144603F8015B9A07F8D10B
:10519000032C2ED9CDB245EA05250F2C45EA05454D
:1051A00019D903F110022646103E0F2E42F8105C6A
:1051B00042F80C5C42F8085C42F8045C02F1100210
:1051C000F2D8A4F1100222F00F0204F00F04103202
:1051D000032C13440DD91E462246043A032A46F8EE
:1051E000045BFAD8221F22F003020432134404F0B5
:1051F00003042CB1C9B21C4403F8011BA342FBD128
:1052000070BC704714460346C2E700BF70B5084C37
:1052100006460025084611461A462560FBF7F6FFAC
:10522000431C00D070BD2368002BFBD0336070BDE1
:105230003C1000202DE9F04F174683B00E460029A0
:1052400000F0E780814607F10B05FBF795FF56F864
:10525000043C162D23F00304A6F108084CD81022B4
:105260001546AF424DD8944280F28480DFF8ACB34B
:10527000DBF8080008EB0401884200F0D68048689B
:1052800020F0010E8E44DEF804E01EF0010F3FD145
:1052900020F003002044904280F2C180DB0700F13F
:1052A0008F8056F8083CC3EB080ADAF8043023F084
:1052B000030300EB030E964534DBCB688A68574640
:1052C000D3609A6057F8081FDAF80C30CB60221FC1
:1052D000242A996000F23681132A40F2FD80336857
:1052E000CAF808307368CAF80C301B2A00F24081F3
:1052F00008360AF11003F0E025F00705002D2A46D4
:10530000AFDA0C230020C9F8003003B0BDE8F08FFD
:10531000D90755D456F8083CC3EB080ADAF804302C
:1053200023F00303234493424ADB5746DAF80C1078
:1053300057F8080F221F242AC160886000F20E81EE
:10534000132A40F209813168CAF808107168CAF856
:105350000C101B2A00F2218108360AF11002316874
:10536000116071685160B16891601C46DAF80430D0
:105370003E46D046621B0F2A03F001030ED823439A
:105380004444C8F80430636843F00103636048464E
:10539000FBF7F6FE304603B0BDE8F08F08EB0501E1
:1053A0001D4342F001030A44C8F804504B6053689F
:1053B00043F00103083153604846FEF731FEE6E74B
:1053C00039464846FFF7FAFA0746D8B156F8043C82
:1053D00023F001024244A0F10801914200F0AC80A8
:1053E000221F242A00F29980132A6AD803463246E3
:1053F000116819605168596092689A603146484650
:10540000FEF70EFE4846FBF7BBFE384603B0BDE88C
:10541000F08F114603B0BDE8F04FFFF7CFBACA686E
:1054200089680446CA609160A4E7416821F00301DD
:10543000214405F1100081425BDADB07C0D456F845
:10544000083CC3EB080ADAF8043023F0030301EB4D
:10545000030C60453FF766AF5746DAF80C3057F853
:10546000081F221F242ACB60996000F2B880132AFB
:1054700040F2A9803368CAF808307368CAF80C3063
:105480001B2A00F2B58008360AF1100332681A6050
:1054900072685A60B2689A600AEB0502C5EB0C03A9
:1054A00043F00103CBF808205360DAF8043003F02E
:1054B00001031D434846CAF80450FBF761FE384615
:1054C00069E733680360736843601B2A29D800F1D9
:1054D000080306F108028BE73B4632681A607268DF
:1054E0005A60B2689A603E467446DAF80430D04694
:1054F00040E708EB05024B1B43F00103CBF8082003
:10550000536056F8043C03F001031D43484646F837
:10551000045CFBF735FE30463DE73146FFF7C4FD3E
:105520006CE7B3688360F368C360242A2CD000F171
:10553000100306F110025BE750F8042C22F003027E
:10554000144417E73146384674463E46FFF7ACFD33
:10555000D046DAF804300DE73A4600E731463846DF
:105560001C463E46FFF7A0FDD046DAF8043001E7BE
:10557000B368CAF81030F368CAF81430242A18D077
:1055800010360AF11803A8E73369036173694361B0
:1055900006F1180200F118032AE7B168CAF81010E2
:1055A000F168CAF81410242A0FD010360AF1180234
:1055B000D5E63369CAF818307369CAF81C30183652
:1055C0000AF1200389E73B4660E73269CAF81820F0
:1055D0007269CAF81C2018360AF12002BFE631466B
:1055E0003846CDF804C0FFF75FFDDDF804C053E78F
:1055F000B368CAF81030F368CAF81430242A03D00C
:1056000010360AF1180341E73369CAF81830736994
:10561000CAF81C3018360AF1200337E7D4050020F9
:10562000838903F00903092B01D000207047FEF79E
:1056300051BB00BFF8B50C46054610B1836B002B7B
:1056400043D0A3899AB2970407D4626E43F40053FF
:1056500022F400526266A3819AB20021960661602C
:1056600030D4500721D5216B61B104F14003994238
:1056700002D02846FEF7D4FCE36B63600020206371
:10568000002B3ED12369002B4BD0A789BEB2B307B4
:105690001ED1226922602846E169256A6369A8470C
:1056A0000028606009DD0020F8BDD1063ED5120754
:1056B0002AD443F00403A381E4E7A38919D143F07A
:1056C0002003A3814FF0FF30F8BDFEF7EFFBB8E7F2
:1056D0001A4B1B4918680123A38106F00906FFF73E
:1056E00075F8092EA781D4D128462146FEF732FA53
:1056F000CFE7002243F04003A38162604FF0FF3008
:10570000F8BDA36B2360F8BD28462146FEF7CCFA0E
:105710000028D7D1A389A06023F00803A0619BB221
:10572000C7E728462146FFF7C9F8AEE743F0400334
:1057300009222A604FF0FF30A381F8BD5CEB00081E
:105740002156000838B5074C00230546084623605B
:10575000FBF7B6FC431C00D038BD2368002BFBD000
:105760002B6038BD3C10002000290CBF0222002213
:105770004FF4806300F000B82DE9F0413A4C266800
:105780000D46044690461F4616B1B36B002B3CD025
:10579000B8F1020F2FD8002F2DDB21463046FEF73F
:1057A00083FAA18900236360A3610B0627D421F04B
:1057B000830189B2B8F1020FA1812AD0002D36D021
:1057C000B8F1010F11D089B201F00800274BF36343
:1057D00080B225602561676178B111F0030F18BFB1
:1057E0000027A7600020BDE8F08141F001017B4265
:1057F000A181A361E7E74FF0FF30BDE8F0812169A7
:105800003046FEF70DFCA189D1E73046FEF74EFB8E
:10581000BEE7002004F1430341F00201002501220C
:10582000A181A560236023616261BDE8F081002F42
:1058300008BF4FF480673846FFF7B0F8054628B137
:10584000A18941F0800189B2A181B9E74FF480605C
:10585000FFF7A4F8054618B9A1894FF0FF30D9E742
:105860004FF48067ECE700BFD0050020F93C00084A
:105870000EB4F0B59CB021AB0F4953F8042B019343
:1058800005466FF00044086802954FF402774FF622
:10589000FF7602A90695ADF8147004940794ADF84C
:1058A000166000F069FA029B00221A701CB0BDE875
:1058B000F04003B0704700BFD00500200EB4F0B533
:1058C0009CB021AC4FF4017254F8046BADF8142075
:1058D0000290069000F0D4F90C4B01940546324634
:1058E0000B4F1868039523464FF6FF76002402A954
:1058F00007950A970E941394ADF8166001F0A4FC76
:105900001CB0BDE8F04003B0704700BFD0050020D8
:105910003959000810B50C46B1F90E1005F01EFCFF
:10592000002803DB236D0344236510BDA38923F402
:105930008053A38110BD00BF002070472DE9F041C6
:1059400016468A891D46D3050C46074606D5002211
:10595000B1F90E10022304F067FFA289B4F90E100A
:1059600022F48052A281384632462B46BDE8F041EF
:1059700003F08CBE10B50C46B1F90E1004F054FFC4
:10598000A389421C0EBF23F4805343F48053206547
:10599000A38110BDB1F90E1003F0EEBE00000000AF
:1059A000A2EB0300704700BF02780B78012A28BFE2
:1059B0009A42F5D16DE9044540EA0104CDE9026758
:1059C0006FF0000C4FEA447212B380EA010414F045
:1059D000070F6AD100F0070420F0070004F0030568
:1059E00021F007014FEAC505F0E8042314F0040F85
:1059F000F1E804670CFA05F462EA040266EA0406B8
:105A00000AD063EA0403624667EA0407664603E0D5
:105A1000F0E80423F1E8046782FA4CF582EA060410
:105A2000A4FA8CF46CBB83FA4CF583EA0705A5FA5B
:105A30008CF595B950E9022351E9026782FA4CF5D9
:105A400082EA0604A4FA8CF483FA4CF583EA07058B
:105A5000A5FA8CF52543DBD09CB92DBAB5FA85F4AF
:105A600024F0070427FA04F1DDE9026723FA04F3BE
:105A700003F0FF0001F0FF01FDE80445A0EB010089
:105A8000704724BAB4FA84F424F0070426FA04F127
:105A9000DDE9026722FA04F202F0FF0001F0FF01E3
:105AA000FDE80445A0EB0100704714F0030F3CD162
:105AB00010F0030428D150F8082B51F8083B82FA63
:105AC0004CF582EA0305A5FA8CF55DB950F8042C73
:105AD00051F8043C82FA4CF582EA0305A5FA8CF5EC
